:100000000C9434000C943E000C943E000C943E0082
:100010000C943E000C943E000C943E000C943E0068
:100020000C943E000C943E000C943E000C943E0058
:100030000C943E000C943E000C943E000C943E0048
:100040000C943E000C943E000C943E000C943E0038
:100050000C943E000C943E000C943E000C943E0028
:100060000C943E000C943E0011241FBECFEFD8E04C
:10007000DEBFCDBF0E9440000C94B3010C94000081
:1000800022242FBE8FEF98E09EBF8DBF84E085B9FC
:1000900084B98FE388B927B8569A5E988DE790E0C7
:1000A00056D12A988DE790E052D12A9A80E09BE0C1
:1000B000339B0BC08BE096E1329B07C086E190E258
:1000C000319B03C0309B3CC0E9CF8F939F9388EE58
:1000D00093E03DD19F918F91E0E8F3E09F938F9360
:1000E000EF93FF93D3D0FF91EF918F919F91C8F43D
:1000F0009F938F9380910001909101018E0F9F1F1C
:100100008F579D4760F48091000190910101A0E01C
:10011000B1E00E940A3F8058904009F0D2F78F91D9
:100120009F9183958917D1F68FEF8093000180937B
:10013000010180930201A0E0B1E00E940A3FAECF2E
:100140008F9384EF91E003D18F91E2E0FEE7059079
:10015000F491E02DA591B591B53028F5A830B20500
:1001600010F1CD018E0F9F1F80509E47E0F48591C6
:100170008034C8F4AF93BF93EF93FF93A591B591EB
:1001800093E0A83EB90738F4A591B591A83EB90708
:1001900010F434975BD0FF91EF91BF91AF913397FB
:1001A000EA0FFB1FD7CF7ACF61E06093B90062E618
:1001B0006093B80064E06093BC0008958F939F93B0
:1001C00088EE93E0BED09F918F912092BC0008955D
:1001D00064EA6093BC006091BC0067FFFCCF609153
:1001E000B900687F603109F468E0683509F460E5BA
:1001F000089564E96093BC00089574687093BC002E
:10020000EADF7091BB0008957093BB0064E86093CF
:10021000BC00E1CF80930201982F8827990F990F96
:10022000002408957F93D4DF683071F470EAECDF26
:10023000603200FCC1F3683139F4792FE5DF6832B0
:1002400019F4782FE1DF68327F910895ADDFE2DFA6
:10025000E9DFD9F47591D8DF6832B9F401961197C6
:1002600071F0782F7F71B1F7C4DF8F939F9380ED8A
:1002700097E067D09F918F9100240394E9CFB9DF75
:1002800080E797E15ED0089499CF4DC08DDFC2DF43
:10029000C9DFD9F79DDF6830C1F771EAB5DF603497
:1002A000A1F784E0E3E0F1E070E4A7DF603569F7EF
:1002B00071938A95C9F73497619171916430720591
:1002C00090F183E0683E780770F58191919168170D
:1002D000790748F563E0893E960728F50497BC0145
:1002E0006A577F4F60786093000170930101019716
:1002F00070E409F470E0019670E47FDF603599F4F2
:1003000071930197A1F70FD08091000190910101A5
:1003100080509F4F8E1B9F0B7FEF01C07193019701
:10032000EAF70894089565DF49DF8894089500C0CE
:1003300000C000C000C000C000C000C000C000007D
:1003400008950197F9DFF5DF0197E9F70895AF9375
:10035000BF93DC01EDDF87EE93E0F3DF1197D1F778
:0A036000BF91AF910895F894FFCF0C
:107E00004645800367B760FDFDCF0895FBDF77BF70
:107E1000E89508958F9373E0F9DF80E40D901D904D
:107E200071E0F4DF32968A95C9F7E058F04075E0CA
:107E3000EDDF71E1EBDF77B776FDFBCFE3DFE058F5
:067E4000FF4F8F91089531
:00000001FF
