:1000000019C020C01FC01EC01DC01CC01BC01AC00C
:1000100019C018C017C016C015C014C013C012C034
:1000200011C010C00FC00EC00DC00CC00BC00AC064
:1000300009C008C011241FBECFEFD4E0DEBFCDBF82
:1000400002D072C1DDCF22242FBE8FEF94E09EBF7D
:100050008DBF84E085B984B98FE388B927B8569AF3
:100060005E988DE790E054D12A988DE790E050D1CA
:100070002A9A80E09BE0339B0BC08BE096E1329B99
:1000800007C086E190E2319B03C0309B3AC0E9CFC4
:100090008F939F9388EE93E03BD19F918F91E0E8FF
:1000A000F3E09F938F93EF93FF93D1D0FF91EF9164
:1000B0008F919F91C0F49F938F93809100019091B5
:1000C00001018E0F9F1F8F5B9E4158F480910001AC
:1000D00090910101A0E0B1E01DDF8054904009F053
:1000E000DAF78F919F9183958917D9F68FEF8093D7
:1000F00000018093010180930201A0E0B1E00ADFDA
:10010000B0CF8F9384EF91E003D18F91E2E0FFE1D4
:100110000590F491E02DA591B591B53028F5A83062
:10012000B20510F1CD018E0F9F1F80509F41E0F46A
:1001300085918034C8F4AF93BF93EF93FF93A5915B
:10014000B59193E0A83EB90738F4A591B591A83EC2
:10015000B90710F434975BD0FF91EF91BF91AF9145
:100160003397EA0FFB1FD7CF7CCF61E06093B900D4
:1001700062E66093B80064E06093BC0008958F93DA
:100180009F9388EE93E0BED09F918F912092BC0008
:10019000089564EA6093BC006091BC0067FFFCCFE7
:1001A0006091B900687F603109F468E0683509F44E
:1001B00060E5089564E96093BC00089574687093E5
:1001C000BC00EADF7091BB0008957093BB0064E847
:1001D0006093BC00E1CF80930201982F8827990F8C
:1001E000990F002408957F93D4DF683071F470EA8A
:1001F000ECDF603200FCC1F3683139F4792FE5DFC0
:10020000683219F4782FE1DF68327F910895ADDF0D
:10021000E2DFE9DFD9F47591D8DF6832B9F40196ED
:10022000119771F0782F7F71B1F7C4DF8F939F938F
:1002300080ED97E067D09F918F9100240394E9CFE0
:10024000B9DF80E797E15ED0089499CF4DC08DDF8C
:10025000C2DFC9DFD9F79DDF6830C1F771EAB5DFCA
:100260006034A1F784E0E3E0F1E070E4A7DF6035FB
:1002700069F771938A95C9F73497619171916430E8
:10028000720590F183E0683E780770F58191919155
:100290006817790748F563E0893E960728F50497C3
:1002A000BC016A5B7F4F607C609300017093010129
:1002B000019770E409F470E0019670E47FDF603527
:1002C00099F471930197A1F70FD08091000190915B
:1002D000010180509F4F8E1B9F0B7FEF01C07193D8
:1002E0000197EAF70894089565DF49DF8894089537
:1002F00000C000C000C000C000C000C000C000C0FE
:10030000000008950197F9DFF5DF0197E9F70895F7
:10031000AF93BF93DC01EDDF87EE93E0F3DF11973E
:0C032000D1F7BF91AF910895F894FFCF82
:101F00004645800367B760FDFDCF0895FBDF77BFCF
:101F1000E89508958F9373E0F9DF80E20D901D90AE
:101F200071E0F4DF32968A95C9F7E054F04075E02D
:101F3000EDDF71E1EBDF77B776FDFBCFE3DFE05C50
:061F4000FF4F8F91089590
:00000001FF
