:1000000012C019C018C017C016C015C014C013C044
:1000100012C011C010C00FC00EC00DC00CC00BC06C
:100020000AC009C008C011241FBECFE5D4E0DEBF5E
:10003000CDBF02D066C1E4CF22242FBE8FE594E06D
:100040009EBF8DBF84E088BB87BB8FE385BB24BA8E
:100050008E9A96988DE790E048D1C2988DE790E00F
:1000600044D1C29A80E09BE09B9B0BC08BE096E161
:100070009A9B07C086E190E2999B03C0989B3AC087
:10008000E9CF8F939F9388EE93E02FD19F918F912B
:10009000E0E8F3E09F938F93EF93FF93C5D0FF9138
:1000A000EF918F919F91C0F49F938F938091600007
:1000B000909161008E0F9F1F8F5B9E4158F480913D
:1000C000600090916100A0E6B0E024DF8054904091
:1000D00009F0DAF78F919F9183958917D9F68FEF01
:1000E000809360008093610080936200A0E6B0E09E
:1000F00011DFB0CF8F9384EF91E0F7D08F91E2E0E2
:10010000FFE10590F491E02DA591B591B53028F56A
:10011000A830B20510F1CD018E0F9F1F80509F4176
:10012000E0F485918034C8F4AF93BF93EF93FF93CD
:10013000A591B59193E0A83EB90738F4A591B59182
:10014000A83EB90710F434974FD0FF91EF91BF91BB
:10015000AF913397EA0FFB1FD7CF7CCF61E061B936
:1001600062E660B964E066BF08958F939F9388EE5E
:1001700093E0B5D09F918F9126BE089564EA66BF43
:1001800066B767FFFDCF61B1687F603109F468E051
:10019000683509F460E5089564E966BF08957468F8
:1001A00076BFEEDF73B1089573B964E866BFE8CF38
:1001B00080936200982F8827990F990F0024089543
:1001C0007F93DCDF683071F470EAEEDF603200FCB0
:1001D000C1F3683139F4792FE7DF683219F4782FE9
:1001E000E3DF68327F910895B9DFE2DFE9DFD9F418
:1001F0007591DADF6832B9F40196119771F0782FB2
:100200007F71B1F7C9DF8F939F9380ED97E067D03F
:100210009F918F9100240394E9CFBEDF80E797E19F
:100220005ED00894A2CF4DC099DFC2DFC9DFD9F7F5
:10023000A5DF6830C1F771EAB7DF6034A1F784E069
:10024000E3E6F0E070E4ABDF603569F771938A951F
:10025000C9F73497619171916430720590F183E030
:10026000683E780770F5819191916817790748F594
:1002700063E0893E960728F50497BC016A5B7F4FCF
:10028000607C6093600070936100019770E409F4F2
:1002900070E0019670E483DF603599F47193019703
:1002A000A1F70FD08091600090916100805A9F4F1C
:1002B0008E1B9F0B7FEF01C071930197EAF70894A3
:1002C00008956ADF52DF8894089500C000C000C01E
:1002D00000C000C000C000C000C000000895019729
:1002E000F9DFF5DF0197E9F70895AF93BF93DC01DC
:1002F000EDDF87EE93E0F3DF1197D1F7BF91AF9178
:060300000895F894FFCF00
:101F00004645800367B760FDFDCF0895FBDF77BFCF
:101F1000E89508958F9373E0F9DF80E20D901D90AE
:101F200071E0F4DF32968A95C9F7E054F04075E02D
:101F3000EDDF71E1EBDF77B776FDFBCFE3DFE05C50
:061F4000FF4F8F91089590
:00000001FF
