:1000000012C019C018C017C016C015C014C013C044
:10001000F9C011C010C00FC00EC00DC00CC00BC085
:100020000AC009C008C011241FBECFE5D4E0DEBF5E
:10003000CDBFC4D145CCE4CF00C000C000C000C0DB
:1000400000C000C000C000C0000008950197F9DFA3
:10005000F5DF0197E9F70895DC01EFDF87EE93E024
:10006000F5DF1197D1F7089501F9025A0000F30561
:100070006F0000FF056F0000FF1D36261C3576005F
:100080003F1E3C382534311B3D1F2A29242E303297
:100090002820372B233A2F333B21392C223E2D2782
:1000A000FFDB020977DE750C0EE0030874D9E3D894
:1000B000D7D5040673DADDE40FD60507700DDCE54D
:1000C000DF720A0B7101E2E180B3EA9509F48068FE
:1000D0008F3F81F0EE0FEE0FEE0FEA95E395880F5C
:1000E000E8F38881807809F4E85DF0E0E858FF4F94
:1000F0008491898308958BEB91E033202AF021F0DD
:100100008DED90E030FE83EFE817F90731F43320EE
:1001100012F4C29802C082E88FBD8DEB91E03320CB
:100120002AF021F080EE90E030FE86EFE817F90724
:1001300031F4332012F4C29A02C082EC8FBD3196A2
:100140008DE092E033202AF021F086E091E030FE4D
:1001500088E3E817F90731F4E989FA8931966F01E4
:10016000E0E0F0E07F010697E81BF90B10F011F4D6
:10017000A39A40C0E13059F48A81882311F480B3F6
:1001800088838FEF8983A0DFA398A29A33C0E230DF
:1001900021F49ADFA298A19A2DC0E33021F494DFD4
:1001A000A198A09A27C0E43021F48EDFA098B89AD5
:1001B00021C08ADFB898EA8189818F3F89F09B81CD
:1001C000891709F0EE278B83EE2309F48C83E43042
:1001D00008F4E4E0E395EE3160F0E6508C8309C06A
:1001E000EE2339F0E53008F0E5E0EA9511F48FEF01
:1001F0008B83EA8390C029F48BA19CA101968BA3E9
:100200009CA379CF8F938FB78F938CB58C3000F0F0
:100210008D3000F08E3000F08F3000F09F93EF9320
:10022000FF93F70180EC019988E090E033200AF019
:1002300011F4880F991FE817F907E8F6AF93BF93F9
:100240006F937F9331967F01E150FE2F97E067E037
:1002500033200AF019F4F69591E06FE0D601E62319
:10026000E61BEF938DE0332022F019F088E330FE97
:100270008DE38A95F1F7F77060E0F6956795F6954E
:1002800067956054F94EED898E89AE17B80720F056
:10029000AE2FB82F119703C000C000C000007FE14F
:1002A000ED91E63719F4E0E0119702C000C000C0FC
:1002B000E7FBEF73E60FE4910EF0E09580E58DB972
:1002C000EFB9943078F10000ED91E63781F0E7FB6B
:1002D000EF73E60FE4910EF0E09586E08A95F1F772
:1002E00000C0EFB97A9581F700C0119600C07395F0
:1002F000892F03C000C0892F8D5F8A95F1F77A9509
:10030000C9F780E18DB98F91882309F46D017F9140
:100310006F91BF91AF91FF91EF919F918F918FBF9F
:100320008F911895ED91E63711F3E7FBEF73E60F28
:10033000E4910EF0E09500C0EFB97A9599F7D5CF2A
:100340008F939F93EF93FF93F894832D8F3F09F43E
:1003500080E0E5E08E9FE8E6F0E0E00DF11D85919C
:100360008EB980E58DB92EBC29BE2DBC2CBC8591E3
:10037000959197BD86BD859195919BBD8ABD82EC77
:100380008FBD89E18EBD84E089BFE22CF22C898982
:100390009A8901966C017894FF91EF919F918F91CA
:1003A00008957C817F3F49F06FEF6C83029B089535
:1003B0007054763E08F4705C772308952224C0E6DA
:1003C000D0E020B8E0E6F0E094E02192E036F907D2
:1003D000E1F78FEF91E028D07F3F19F0733008F0FC
:1003E0007FEF8E9A96986FE365BB88EE93E02EDEE2
:1003F0009B9B7FEF9A9B70E0999B71E0989B72E0CA
:10040000372E672F8FEF91E014D028BA8EE287BB8A
:1004100080E385BB24BA9FEF92BB21BA81E08E8333
:100420009B839C838DDF95C19FBB8EBBE09A7DB380
:1004300008957F93F9DF761749F09FBB8EBB6DBBA4
:10044000F894E29AE19A7894E199FECF7F91089529
:1004500088279927EDE8F0E0AD85BE85AE1BBF0B80
:1004600059F061E0AE3FB60710F0AEEFB1E0619138
:10047000E0DF01961197D9F761E08E3F960720F4EF
:100480006FEFD7DF0196F8CF089588279927EDE819
:10049000F0E0AEEFB1E0C8DF719301961197D9F7A4
:1004A0007291763729F0B0E0ED38FB07C9F7319744
:1004B0003196089500B161E061B962E660B964E027
:1004C00066BF089526BE00B9089564EA66BF66B7A0
:1004D00067FFFDCF61B1687F603109F468E008957E
:1004E00064E966BF0895746876BFF1DF73B108955B
:1004F00073B964E866BFEBCF7F93E7DF683071F4D0
:1005000070EAF6DF603200FCC1F3683139F4792F0C
:10051000EFDF683219F4782FEBDF68327F910895AE
:100520009923089459F4982F8827990F38F0990F38
:10053000E9E8F0E020813181428153810895E9E8C2
:10054000F0E020833183428353830895E9DF80F113
:10055000AD85BE85AE1BBF0BA083B183AF85B889C7
:10056000AE1BBF0BA283B383A5DF0024C5DF01F55B
:100570007191BEDF6832E1F40196119771F0782F26
:100580007F71B1F7ADDF8F939F9380ED97E05EDDD4
:100590009F918F9100240394E9CFA2DF8F939F93C3
:1005A00080E797E153DD9F918F91C9DF08948ACF4F
:1005B00097DFC5DF87DF8894EAE042C0B1DFC0F390
:1005C000AAE0B0E077DF002497DF91F77EDF6830A4
:1005D00079F771EA8DDF603459F7119770E409F407
:1005E00070E0119680DF603511F0683509F771937E
:1005F00070E0ED38F707E9F4349760817181643079
:100600007205B0F2A3E0683E7A0790F6A281B3814A
:100610006A177B0768F66E0F7F1F6D877E8763E022
:10062000A93EB60728F6BD016E0F7F1F6F87788B36
:100630003496119791F654DF82DF089443CF00007F
:10064000049BED83049A0895EBA5FCA5708170309E
:10065000D1F706D0FCCF3FD57081793D09F048C471
:10066000EBA5FCA53196EBA7FCA77081703B59F771
:10067000E987FA877E8D77FD029AF4CFD48F81398E
:100680002D2AB339B4999A91903334B992939495B1
:100690002633A934B71494969798312E38B9372A4F
:1006A000393A37B32831B8292EB238263BAA2B3431
:1006B000B72C340039B4353430AA2E33353AB93733
:1006C00026332934322E38AA312AB92B2638B938A4
:1006D0003134BC332A3DB935372E33B9322A32345E
:1006E00037BE332ABC373AB3383934B528343339B6
:1006F0002E333AAA2EAB2C3400383AA7313426A92F
:1007000028312A26B7372AB28F00B1D2009609F4D1
:100710001ACC01971BCF2FBE20B82D822E8E2B8690
:100720002C86288E298EEFE5F4E00895A0D200965D
:1007300011F41EDC02C0019741DF08F00CC0EBDFB2
:10074000FEBFEDBF13C09F738B879C879F918F91D6
:1007500012C09BDE05C0DFDFFEBFEDBFEDE8F0E0BD
:10076000ED87FE8760E86193EF87F88B71DE2F924B
:100770007FE37F937894D7D260EB619366E76193D0
:10078000E98BFA8B62E06F8BA7D2DF01792F0F889C
:10079000701998F17395972FA9D2AB85BC85E88D18
:1007A000F98DAE1BBF0B20F4EA0FFB1FE88FF98F0A
:1007B000DAD1A0E034D1F0F3AA95E1F49F01D1D1D0
:1007C000F901EA1BFB0BE8E7F0E038F47D916C914E
:1007D00061937083D9CFEBE6F0E0A081B1819F01F6
:1007E000FD013196C0D163D0F901059906C0A083FF
:1007F000B183CACF8DD1AB8BBC8B60B163736160A9
:1008000060B991D2DBD2AB89BC899F8981E06ED27D
:100810008AD216D140F06F8963956F8B78E1761795
:1008200008F0B2CF7F8B74D1BCDDF1F3703C33F0B4
:1008300077D281E090E078D17C93DFCFECE7F7E0EE
:10084000E70FF21DE70FF21D85919491969587951C
:100850008F939F9365C281E090E0BBC19C08D6074F
:100860006C087008A808C808160982080ED03297CC
:1008700031967081763721F060EB608351D27083BE
:10088000BCCF03D03197E7DFB8CFAF85B8897C9173
:10089000703B09F00895BF91AF91AFCF62D122D2E2
:1008A00006D0EBE6F0E0A1CFA0E0B0E0FACF708197
:1008B000707C39F0FD017081707C19F0BB27AA278C
:1008C0000895B191A081089592E080E0AF85B88944
:1008D0000DD247D1ECDF109609F44DCF3197B1D14D
:1008E000319750D132960297D40170EB7D93EF93FC
:1008F000FF93E2E2F0E0EA0FFB1FE80FF91F0DB6ED
:10090000E0190EB6F009FF91EF9108F076CFF8D11B
:10091000A98BBA8B39CFEA8DFB8DFE2B09F06DCFF9
:10092000FFD199DF00D2EBA7FCA78EDE05990EC0A0
:100930005DD1DCD1309609F047C03297EF83F8875C
:10094000CBD1D4D17081763709F415CF2D8204989C
:1009500060B16A7B686860B931D21ED6AF81B88554
:10096000059911960598049915C0EBA5FCA531963B
:10097000039B06C00398B6D17F2F707C59F4F3D047
:100980007081707C39F4B191A191AF83B8877B817C
:10099000703011F76CD1BCD091E080E2A7D17D819D
:1009A0008F819885049B07C00C01793009F401966A
:1009B0008C8F9D8FC0016AD075E16DD033D1A8D0E6
:1009C0000198EFDCF1F3D7CEEB87FC878FD18AD18A
:1009D00083D1EA1BFB0B8AD1C6D0EF93FF9311F4AE
:1009E000D1D0F7D083D13196CF017E2F73507F2B9A
:1009F00009F00DD3FF91EF9180F48F939F9331977E
:100A000093D0119693D131979F918F9101977FD178
:100A1000FD01AB85BC85B193A0831ADDACCE8B857F
:100A20009C85ABD0B7E919F0B0E0A0E0AA1F7081B7
:100A30007034C8F406D1B8F431967B2F2CD098F4DA
:100A4000009A8A8D9B8DE817F90719F478EB23D06B
:100A500050F47191703B41F0703CD3F010F02FD006
:100A600001C016D070F30895029B739514D0FACF8D
:100A700070E07395E80FF91FE0F3E81BF90B7A9526
:100A800029F47A2F7F3F31F408940895ACE17A0F6E
:100A9000703009F000982AD1F72F771F771F8A95B9
:100AA00008F480E022F038F031F476E77D9308F026
:100AB00080E2915019F0E92FB0D27D9317C115D083
:100AC00028F4009903C070E0E6DF70F4FC01749133
:100AD0007F73DEDF40F47591770FC8F7783318F035
:100AE00070E0009AD8DFF80108958F01ECE7F6E096
:100AF0000590701930F073950590000CE8F77A9521
:100B0000D9F774917F7384EE780FCF01F8010895BF
:100B1000EDD0903031F0803076E709F07D939A95F2
:100B2000E9F7AD8BBE8B089504D0FD01AD89BE8978
:100B3000EEC0DF01EDE6F0E000801180A015B10508
:100B400030F4080E191E00821182081A190A329612
:100B5000E73791F7FD01D0010E1A1F0AC001019677
:100B60000895EB85FC858F01EDE8F0E0DF01C80119
:100B7000B9D003D030F406D0FACF718178177081E4
:100B800079070895DF017191770F3AF078F0319687
:100B900076E701900716E9F713C082E008F080E0DD
:100BA000771F771F7191E8F7319704C0707471E077
:100BB00081F3819190E00196E80FF91FE80FF91F8A
:100BC000CF018A1B9B0B8EC0AED03197AD85BE8501
:100BD000F7DF8C01909581959F4FABDFDF01F80126
:100BE000EA0FFB1F8D018CD0F801089570817ED033
:100BF000EE27FF277C5188F07A3078F4FE3008F039
:100C0000FDE06AE0BF2FE69FF001B69FF00DE70F11
:100C1000F21D6CD025DD6AD0EDCF91D07F2F66D04C
:100C2000770F08958D019F01FC01992322F472E151
:100C30002FDFD0F43ED5AFEF80EF98ED19DFA0F4B1
:100C400006C08D01B191A0819F01FD01A0E088E166
:100C50009CEF0EDF48F48CE99FEF0ADF28F486EF63
:100C600007DF10F47E2F12DFF901D8010895079BEA
:100C700005C08B889C8869A47AA40895FF91EF91A0
:100C8000089504990895F3DF57D0069B03C0CF0160
:100C9000C9DF0DC071917130B1F076FF02C00FDF76
:100CA00001C0F9DEB8F304C0E2DF76E7F1DE58F008
:100CB000E5E0C6CCDCDF009A70E0EDDEC8F7762D0B
:100CC0007A957770C9F712D00DD089A79AA7EB8BC8
:100CD000FC8BED8BFE8B089529D086E7819381E212
:100CE00097E1F3CF0D01DF01F00108950C01C3017D
:100CF00030010D01D40140010F01F50150010895AB
:100D00001FB601900D920197E1F71FBE08951FB61F
:100D100000800C92319711970197D1F71FBE08956B
:100D2000E985FA850895EF85F8890895E989FA89B2
:100D30000895EDA1FEA10895EFA1F8A50895EFA3F0
:100D4000F8A708954F2C643F592B174B364E106768
:100D5000692A2D605C3B184D0D11444C315001E364
:100D6000020600EA0F06D5054E0F0600F60F00E258
:100D70000F00321004E306D605560F0400A40F0539
:100D8000501001007A1004DA06D9004E1505760ECF
:100D900003F20F03460706D805BC1003D60F032C39
:100DA00007030A0700E60F00C80B00D80C05700EF9
:100DB00000560700FE0E003E0F00460F3197EBA7CE
:100DC000FCA72A8E2B8E9E8D059B04C09F779E8F3D
:100DD00047DC7AC090689E8F3CDC08DF20F0B501CC
:100DE0006051774208F084D02FDC9E8D9F779E8FD4
:100DF0002FA228A6763761F0872F2BDC865E98F32A
:100E0000E4E4FDE0E80FF21D8491E80FF21D03C059
:100E10000895EF8DF8A17591EF8FF8A382E19EE020
:100E2000969587958F939F93872F770F58F0E8E5D6
:100E3000FEE0E70FF21D65917491769567956F93CB
:100E40007F9302CC01DC753D19F46E8D60686E8F66
:100E5000781709F04DC0FDCB860EAE0EC20E800E87
:100E6000E00E880EEA0E079908959F918F91708188
:100E7000763709F03DD070817637C1F0EADBFCCFE0
:100E8000763709F032D077179F918F9109F4EBDF15
:100E900029DFEF8DF8A18591949124DF96958795B0
:100EA0008F939F938FA198A5792F782B089578D34E
:100EB000F8F4079B9DC1EDA3FEA3079899D1079A6B
:100EC00008959F918F9190B19F9306D1BF918EE825
:100ED00094E170B10799E2CF7B2776FD09D0C7CFA7
:100EE000EDA3FEA35DD320F4BBCBF6D00699089505
:100EF0007A8D0B8C702911F4EA8FFB8F0895B7DE81
:100F00008D859E858D5890408DDE75E1C4DD8F8581
:100F10009889AD85BE858A1B9B0B84DE75E1BBDDA0
:100F20008DB79EB7AD89BE89845292098A1B9B0BEF
:100F300012F480E090E076DEBADE95DFB5CE079B56
:100F40000895019A0895079B08950198089511F452
:100F5000079991CF49CF8F939F93C7DF9F918F912F
:100F600082DFEADEEF93FF9392D29F918F910499F3
:100F700008958F939F9331976081762F7068708367
:100F80003296607821F4319684E090E0CDDD3196A0
:100F9000BF91AF91A193B193AF81B8851196A19301
:100FA000B0830895C6DE8AD1049908959BDE3297F6
:100FB0006191607871F01196A193B19381919191B3
:100FC0000F01FC015ED33096F00159F781919081B9
:100FD0000CC0E1E035CB11F48BA19CA189A39AA3AD
:100FE0000895E9E02DCB8C8D9D8D8F839887039A92
:100FF0000895FBDFE9CDEF81F8851F900F903196C2
:10100000EF93FF930F921F92F0DF90E086E0AD899F
:10101000BE89A80FB91FEAA5F72F7F2FFF27E65E2D
:10102000EA0FFB1F0DB6E0190EB6F00908F3E4E075
:1010300007CBFF91EF919F918F919F3319F0EF9321
:10104000FF93D3CF8F939F93EF93FF93E7E0F8CA7B
:101050007081763709F428CE785D721D41F03CD05E
:1010600010DEF2DA785D721D11F0FDDE1DCE08F0A3
:1010700021DEEFDA763781F7089568856623E2F09E
:10108000FF91EF91059A6E8D6F7B70B1707490E057
:1010900082E009F484E0762B7E8F6ED2D8F466E786
:1010A0006083823019F071E07C93729370EB7293DD
:1010B0007AA573957F8BA1CBE8E0C2CA8F939F93EB
:1010C0000BD0BF91AF91CFDE7FA104990895AB59AA
:1010D000BF437C930895C6DAB7DA90E080E08F933F
:1010E0009F9360D228F199E080E0A0E0B0E07C5DC1
:1010F000A9F0119794E0739589F07395A9F0773270
:1011000041F4069831961BDEABDA7A9579F07537A3
:10111000D9F7EEDEEBDD90E080E020C0AF93BF9327
:101120008F939F9396DADDCF96DA0AC099DA08C0DA
:10113000763210F05DD004C059DD08F4D9DE069A8D
:1011400083DAD4DD90E080E07C5D40F07A3030F4EA
:10115000872FE6EEF1E1E70FF21D9491BF91AF9179
:10116000B91770F1BB23C2DDD1F0C0DD079B18C0F9
:10117000E0EBF5E1EA0FF21DEA0FF21DA591B49143
:101180001F900F90EAEBF1E1F695E795EF93FF934F
:10119000F001B695A795AF93BF93AFA1B8A50895F9
:1011A0007A2F7A307795769500B07025707419F0A3
:1011B0009DDD9EDE9BDDFF91EF91C1DD069ACECFD6
:1011C000AF93BF93782F069907C07D5F872F7A3042
:1011D00018F48CDD8DDE8ADDAFDDEF93FF938F9306
:1011E0009F9384DD9FCF0606080703020A050505C5
:1011F000EF93FF93069A34DA7D3009F459C07A3DB3
:1012000009F454C0CFD110F42BDAFCCF7A3D39F079
:101210007D3009F04FC024DA7A3D09F044C0A7E8D8
:10122000B3E1FF91EF91EF93FF9380811BDA119669
:1012300059DD749157DD7817C1F37F73781719F46E
:1012400080818A3D49F04EDD75914CDD772359F15F
:10125000770FC8F71196E5CFAF93BF93FCD9BF9135
:10126000AF910F900F90EF93FF9360B13BDD7591BD
:1012700039DD67276074B9F4069A7F737D3009F40D
:101280000698FF91EF91079B0895E2E8F3E1F69548
:10129000E795EF93FF93FD01A591B491B695A795BE
:1012A000AF93BF9349CDFF91EF9122CED4D902C025
:1012B0000698D6D9FF91EF91079B0895819170818F
:1012C000EF93FF937A3DA1F48F939F938BA59CA5F9
:1012D0008F939F9300DFFF91EF91FCA7EBA79F9166
:1012E0008F91049B0CC0E3E0ACD9FF91EF9108957E
:1012F0008F7D7D3021F0806455D108F08062ED85CE
:10130000FE8570817F7709F41EC17817B9F4770FD5
:10131000770F22F198F5BF91AF91AF93BF93EF9301
:10132000FF9331967D9160817617D9F370687617B7
:1013300019F47C9137D148F4FF91EF918F939F93EB
:1013400021DCFD019F918F91DCCFBF91AF91BF91C7
:10135000AF913196A191B081C5DC13C0C0F30F905D
:101360000F90DF01E9DCFF2369F411967C917E1771
:1013700048F0EE0FFF1FEA0FFB1FEBCFBF91AF91BD
:101380003196DDCCE3E05CC9352A2AF0E213282D42
:1013900037CD6C14283429AA44143733E9B61339ED
:1013A000318D84143A38F7800C383937CD4A1426F9
:1013B00027F8AC1600009F01E9A1FAA1ADE4B0E066
:1013C000309631F012D1E81BF90B20F4319602C0AF
:1013D000E3EBFFEFE9A3FAA3D90107D1FC013196B2
:1013E00008956EE0E030F607A8F060E1E030F6071F
:1013F00088F4E050FE406E2FF695E795E695E69569
:1014000067706295660F660FFF1FE62BE054F94E7A
:10141000E49119C0EB59FF4360E0ED36F60790F018
:1014200060E0E737F60770F46E2F6D56669518F09A
:1014300009D0E556089531976081F1816556F04CE9
:10144000EF2F01C0E081F0E0089550DC87E090E0EC
:1014500093D0A8F4AD014ADCCF01E4DB47DC71E0B6
:101460007C93FA010895FF91EF91089582E090E056
:101470007E2F82D020F461E0608372930895E6E6C7
:10148000F0E008957081713009F031960895049963
:1014900008958F939F934DDC11DF7D81733019F395
:1014A000049B28C02D820498069B2DC042DC82E05C
:1014B00090E001963196708175D0D8F37A3D09F4A9
:1014C00042C05AD080F6AF93BF9333DC119770E4DB
:1014D000039729F015DC708170687C9370E6FF91AA
:1014E000EF9122D0FFDB1197FF91EF91FBDBB083EF
:1014F000A29308950699F8CFFF91EF9106D01CDCD6
:10150000319740DB66CBFF91EF9181E090E001964F
:1015100071917130E1F7AF012FD0DF01FA0190F442
:10152000F6DBE0DB319670EADF0103DC60817627D1
:10153000FD0133D031977083F9DBEF87F88B31975A
:1015400060E860830895FF91EF91E2E079C8992304
:1015500009F018CFAC010296880F991F0DD050F4F6
:101560003197DF01119702972082D1DBCA01808376
:1015700070E8DACFFA0108954ADD68F48C01D3DB14
:101580009F01D4DB3197D0DA32962F87388BC80190
:10159000A9DB319608940895C9DBAF85B88918CBCB
:1015A000763201C07C3110F070340895889408952B
:1015B000CA15D015DA15361668166E160E1674167C
:1015C000801682168C1692169016EA1BFB0B02C030
:1015D000EA0FFB1FDBF4E6E033C865D09C0105D0C1
:1015E000C901C9F7769590F464C0EA9F8001FB9F1A
:1015F000C001EB9F100D811D921DFA9F100D811DE2
:10160000921DF801110F0008092A082A0895B7FD54
:10161000E2CF77274BD07A239C01CD01DF01E1E0B7
:10162000F0E0019732F0AC01E0DFCA01D1F3C9016B
:10163000D2CFC901D7CF7B2F7A2B69F234D00C01DE
:10164000EE0FFF1F80E090E060E1881F991F8A1B6A
:101650009B0B10F48A0F9B1FEE1FFF1F6A95A9F7C3
:10166000E095F095C001BECFEA23FB230895EA2B55
:10167000FB2B0895EA17FB0739F4EFEFFE2F0895CF
:1016800031DBEA17FB07CCF3E0E0F8CF05D0F4CF6D
:1016900029DB02D090F3F8CF7D910190701511F401
:1016A0007130D1F70895772700D01CDBFF2322F497
:1016B0007395F095E195FF4F08950000000000003C
:1016C0000000F000F00F00000FAA00AA00000000C8
:1016D000000000000000000000000000000000000A
:1016E00000000000000000000000000000000000FA
:1016F00000000000000000000000000000000000EA
:101700000014F000F00F00000F5500551E08003EB9
:101710000410000000000000000000001C0C3E3E11
:101720000C7F3E7F3E3E3E7E1E7C7F7F1E413E0202
:10173000424041613E7E3E7E3E7F41414121417FAC
:101740000014F000F00F00000FAA00AA213E004193
:10175000080800082A020010040800002214414171
:101760001440400141414141214240402141080291
:1017700044406351414141414008414141122202EC
:101780000000F000F00F00000F55005578480806E3
:10179000080800081C043E08080000004104010677
:1017A000247E7E023E41417E40417C7C407F080297
:1017B00078405549414141413E084141410C1C049A
:1017C0000000F0FF0000F00FF0AAAA00203E000881
:1017D00008083E3E080800041000000041043E01D5
:1017E00044014104413F7F4140414040474108425C
:1017F00044404945417E497E01084122490C080880
:101800000000F0FF0000F00FF05555002009000027
:10181000080800081C103E080808080C2204404173
:101820007F4141084101414121424040214108227C
:10183000424041434140454441084114551208107B
:101840000000F0FF0000F00FF0AAAA007F3E080899
:10185000041000082A2000100408080C1C1E7F3EFB
:10186000043E3E083E3E417E1E7C7F401E413E1CA3
:10187000417F41413E403E423E083E082221087FD2
:101880000000F0FF0000F00FF055550000080000C8
:101890000000000000000000001010000000000028
:1018A0000000000000000000000000000000000038
:1018B0000000000000000000000000000000000028
:0418C000F894FFCFCA
:101F000067B760FDFDCF0895FBDF77BFE8950895C3
:101F1000F8948F9373E0F8DF80E20D901D9071E0EC
:101F2000F3DF32968A95C9F7E054F04075E0ECDFB4
:101F300071E1EADF77B776FDFBCFE2DFE05CFF4FD0
:101F40008F9178940895F4D28D859E858E1B9F0B7A
:101F5000808391838F8598898E1B9F0B82839383C7
:101F6000DF01E0E0FBE1D4DF80549040E2F7E7C21C
:101F7000E0E0FBE1659175916450720900F1A3E026
:101F8000663B7A07E0F4859195910497C0F0681755
:101F90007907A8F4ADE8B0E06A0F7B1F6D877E87F4
:101FA00063E0873B960758F4BC016A0F7B1F6F877D
:101FB000788B75917D930197E1F708940895889443
:021FC000089582
:00000001FF
