:1000000019C020C01FC01EC01DC01CC01BC01AC00C
:1000100019C018C017C016C015C0FDC013C012C04B
:1000200011C010C00FC00EC00DC00CC00BC00AC064
:1000300009C008C011241FBECFEFD4E0DEBFCDBF82
:10004000D2D17ECCDDCF00C000C000C000C000C057
:1000500000C000C000C0000008950197F9DFF5DF7F
:100060000197E9F70895DC01EFDF87EE93E0F5DF14
:100070001197D1F7089501F9025A0000F3056F00B6
:1000800000FF056F0000FF1D36261C3576003F1E61
:100090003C382534311B3D1F2A29242E303228209C
:1000A000372B233A2F333B21392C223E2D27FFDBE0
:1000B000020977DE750C0EE0030874D9E3D8D7D5B2
:1000C000040673DADDE40FD60507700DDCE5DF7298
:1000D0000A0B7101E2E189B1EA9509F480688F3F6A
:1000E00081F0EE0FEE0FEE0FEA95E395880FE8F33F
:1000F0008881807809F4E85DF0E0EA57FF4F849149
:10010000898308958BEB91E033202AF021F08DED67
:1001100090E030FE83EFE817F90739F4332012F44A
:100120002A9803C082E8809380008DEB91E0332011
:100130002AF021F080EE90E030FE86EFE817F90714
:1001400039F4332012F42A9A03C082EC80938000A1
:1001500031968DE092E033202AF021F086E091E0A4
:1001600030FE88E3E817F90731F4E989FA89319616
:100170006F01E0E0F0E07F010697E81BF90B10F05B
:1001800011F43B9A40C0E13059F48A81882311F47C
:1001900089B188838FEF89839EDF3B983A9A33C079
:1001A000E23021F498DF3A98399A2DC0E33021F4F7
:1001B00092DF3998389A27C0E43021F48CDF3898E0
:1001C000209A21C088DF2098EA8189818F3F89F0B9
:1001D0009B81891709F0EE278B83EE2309F48C832A
:1001E000E43008F4E4E0E395EE3160F0E6508C830F
:1001F00009C0EE2339F0E53008F0E5E0EA9511F4A6
:100200008FEF8B83EA8391C029F48BA19CA1019687
:100210008BA39CA377CF8F938FB78F93809184000C
:100220008D3000F08E3000F08F3000F0803100F023
:100230009F93EF93FF93F70180ECF19988E090E0B2
:1002400033200AF011F4880F991FE817F907E0F638
:10025000AF93BF936F937F9331967F01E150FE2F51
:1002600097E067E033200AF019F4F69591E06FE02B
:10027000D601E623E61BEF938DE0332022F019F040
:1002800088E330FE8DE38A95F1F7F77060E0F6952C
:100290006795F6956795605CF84EED898E89AE1787
:1002A000B80720F0AE2FB82F119703C000C000C0D0
:1002B00000007FE1ED91E63719F4E0E0119702C00C
:1002C00000C000C0E7FBEF73E60FE4910EF0E0958D
:1002D00080E58CBDEEBD943078F10000ED91E637FD
:1002E00081F0E7FBEF73E60FE4910EF0E09586E016
:1002F0008A95F1F700C0EEBD7A9581F700C011969E
:1003000000C07395892F03C000C0892F8D5F8A9527
:10031000F1F77A95C9F780E18CBD8F91882309F4B4
:100320006D017F916F91BF91AF91FF91EF919F917F
:100330008F918FBF8F911895ED91E63711F3E7FB01
:10034000EF73E60FE4910EF0E09500C0EEBD7A95F4
:1003500099F7D5CF8F939F93EF93FF93F894832DC5
:100360008F3F09F480E0E5E08E9FE6E7F0E0E00DE6
:10037000F11D85918DBD80E58CBD2092810020927C
:100380006F00209285002092840085919591909332
:100390008700809386008591959190938900809342
:1003A000880082EC8093800089E18093810081E065
:1003B00080936F00E22CF22C89899A8901966C0156
:1003C0007894FF91EF919F918F9108957C817F3F69
:1003D00049F06FEF6C83F29B08957054763E08F4F9
:1003E000705C772308952224C0E0D1E02EBAE0E0CB
:1003F000F1E095E02192E030F907E1F78FEF91E02D
:1004000028D07F3F19F0733008F07FEF569A5E983E
:100410006FE368B988EE93E020DE339B7FEF329B79
:1004200070E0319B71E0309B72E0372E672F8FEFC9
:1004300091E014D025B88EE284B980E388B927B85A
:100440009FEF9BB92AB881E08E839B839C8382DFD8
:10045000C0C192BD81BDF89A70B508957F93F9DF50
:10046000761749F092BD81BD60BDF894FA9AF99A69
:100470007894F999FECF7F91089588279927EDE226
:10048000F1E0AD85BE85AE1BBF0B59F061E0AE3F1C
:10049000B60710F0AEEFB1E06191E0DF0196119781
:1004A000D9F761E08E3F960720F46FEFD7DF019612
:1004B000F8CF089588279927EDE2F1E0AEEFB1E09B
:1004C000C8DF719301961197D9F77291763729F0A9
:1004D000B1E0ED32FB07C9F73197319608950091ED
:1004E000B80061E06093B90062E66093B80064E030
:1004F0006093BC0008952092BC000093B80008955A
:1005000064EA6093BC006091BC0067FFFCCF60911F
:10051000B900687F603109F468E0089564E9609388
:10052000BC00089574687093BC00EDDF7091BB004F
:1005300008957093BB0064E86093BC00E4CF7F93A0
:10054000DFDF683071F470EAF4DF603200FCC1F381
:10055000683139F4792FEDDF683219F4782FE9DF4B
:1005600068327F9108959923089459F4982F882729
:10057000990F38F0990FE9E2F1E020813181428151
:1005800053810895E9E2F1E020833183428353836C
:100590000895E9DF80F1AD85BE85AE1BBF0BA0835A
:1005A000B183AF85B889AE1BBF0BA283B38397DF3E
:1005B0000024C5DF01F57191BCDF6832E1F40196DA
:1005C000119771F0782F7F71B1F7A8DF8F939F9308
:1005D00080ED97E042DD9F918F9100240394E9CF55
:1005E0009DDF8F939F9380E797E137DD9F918F91F8
:1005F000C9DF089480CF92DFC5DF7DDF8894EAE011
:100600005FC0B1DFC0F3AAE0B0E069DF002497DF8C
:1006100091F776DF683079F771EA8BDF603459F74C
:10062000119770E409F470E011967CDF603511F0E9
:10063000683509F7719371E0ED32F707E9F4349703
:100640006081718164307205B0F2A3E0683E7A0780
:1006500090F6A281B3816A177B0768F66E0F7F1F41
:100660006D877E8763E0A93EB60728F6BD016E0F51
:100670007F1F6F87788B3496119791F64FDF82DF5B
:10068000089439CF000000000000000000000000C6
:10069000000000000000000000000000000000005A
:1006A000000000000000000000000000000000004A
:1006B000000000000000000000000000000000003A
:1006C000F49BED83F49A0895EBA5FCA5708170303E
:1006D000D1F706D0FCCF3FD57081793D09F048C4F1
:1006E000EBA5FCA53196EBA7FCA77081703B59F7F1
:1006F000E987FA877E8D77FDF29AF4CFD48F81391E
:100700002D2AB339B4999A91903334B99293949530
:100710002633A934B71494969798312E38B9372ACE
:10072000393A37B32831B8292EB238263BAA2B34B0
:10073000B72C340039B4353430AA2E33353AB937B2
:1007400026332934322E38AA312AB92B2638B93823
:100750003134BC332A3DB935372E33B9322A3234DD
:1007600037BE332ABC373AB3383934B52834333935
:100770002E333AAA2EAB2C3400383AA7313426A9AE
:1007800028312A26B7372AB28F00B1D2009609F451
:10079000DACB0197FECE2FBE2EBA2D822E8E2B865F
:1007A0002C86288E298EEFEFF4E00895A0D20096D3
:1007B00011F4DEDB02C0019724DF08F00CC0EBDF90
:1007C000FEBFEDBF13C09F738B879C879F918F9156
:1007D00012C070DE05C0DFDFFEBFEDBFEDE2F1E06D
:1007E000ED87FE8760E86193EF87F88B46DE2F92F6
:1007F0007FE37F937894D7D260EB619366E7619350
:10080000E98BFA8B62E06F8BA7D2DF01792F0F881B
:10081000701998F17395972FA9D2AB85BC85E88D97
:10082000F98DAE1BBF0B20F4EA0FFB1FE88FF98F89
:10083000DAD1A0E034D1F0F3AA95E1F49F01D1D14F
:10084000F901EA1BFB0BE8E1F1E038F47D916C91D2
:1008500061937083D9CFEBE0F1E0A081B1819F017A
:10086000FD013196C0D163D0F901F59906C0A0838E
:10087000B183CACF8DD1AB8BBC8B6EB36373616018
:100880006EBB91D2DBD2AB89BC899F8981E06ED2ED
:100890008AD216D140F06F8963956F8B78E1761715
:1008A00008F0B2CF7F8B74D191DDF1F3703C33F05F
:1008B00077D281E090E078D17C93DFCFECEFF7E066
:1008C000E70FF21DE70FF21D85919491969587959C
:1008D0008F939F9365C281E090E0BBC11C095608CD
:1008E000EC08F00828094809960902090ED0329749
:1008F00031967081763721F060EB608351D270833E
:10090000BCCF03D03197E7DFB8CFAF85B8897C91F2
:10091000703B09F00895BF91AF91AFCF62D122D261
:1009200006D0EBE0F1E0A1CFA0E0B0E0FACF70811B
:10093000707C39F0FD017081707C19F0BB27AA270B
:100940000895B191A081089592E080E0AF85B889C3
:100950000DD247D1ECDF109609F44DCF3197B1D1CC
:10096000319750D132960297D40170EB7D93EF937B
:10097000FF93E2E2F0E0EA0FFB1FE80FF91F0DB66C
:10098000E0190EB6F009FF91EF9108F076CFF8D19B
:10099000A98BBA8B39CFEA8DFB8DFE2B09F06DCF79
:1009A000FFD199DF00D2EBA7FCA78EDEF5990EC030
:1009B0005DD1DCD1309609F047C03297EF83F887DC
:1009C000CBD1D4D17081763709F415CF2D82F4982C
:1009D0006EB36A7B68686EBB31D21ED6AF81B885B4
:1009E000F5991196F598F49915C0EBA5FCA53196EB
:1009F000F39B06C0F398B6D17F2F707C59F4F3D0E7
:100A00007081707C39F4B191A191AF83B8877B81FB
:100A1000703011F76CD1BCD091E080E2A7D17D811C
:100A20008F819885F49B07C00C01793009F40196F9
:100A30008C8F9D8FC0016AD075E16DD033D1A8D065
:100A4000F198C4DCF1F3D7CEEB87FC878FD18AD144
:100A500083D1EA1BFB0B8AD1C6D0EF93FF9311F42D
:100A6000D1D0F7D083D13196CF017E2F73507F2B19
:100A700009F00DD3FF91EF9180F48F939F933197FD
:100A800093D0119693D131979F918F9101977FD1F8
:100A9000FD01AB85BC85B193A083EFDCACCE8B852B
:100AA0009C85ABD0B7E919F0B0E0A0E0AA1F708137
:100AB0007034C8F406D1B8F431967B2F2CD098F45A
:100AC000F09A8A8D9B8DE817F90719F478EB23D0FB
:100AD00050F47191703B41F0703CD3F010F02FD086
:100AE00001C016D070F30895F29B739514D0FACF1D
:100AF00070E07395E80FF91FE0F3E81BF90B7A95A6
:100B000029F47A2F7F3F31F408940895ACE17A0FED
:100B1000703009F0F0982AD1F72F771F771F8A9548
:100B200008F480E022F038F031F476E77D9308F0A5
:100B300080E2915019F0E92FB0D27D9317C115D002
:100B400028F4F09903C070E0E6DF70F4FC017491C2
:100B50007F73DEDF40F47591770FC8F7783318F0B4
:100B600070E0F09AD8DFF80108958F01ECEFF6E01D
:100B70000590701930F073950590000CE8F77A95A0
:100B8000D9F774917F7384EE780FCF01F80108953F
:100B9000EDD0903031F0803076E709F07D939A9572
:100BA000E9F7AD8BBE8B089504D0FD01AD89BE89F8
:100BB000EEC0DF01EDE0F1E000801180A015B1058D
:100BC00030F4080E191E00821182081A190A329692
:100BD000E73191F7FD01D0010E1A1F0AC0010196FD
:100BE0000895EB85FC858F01EDE2F1E0DF01C8019E
:100BF000B9D003D030F406D0FACF71817817708164
:100C000079070895DF017191770F3AF078F0319606
:100C100076E701900716E9F713C082E008F080E05C
:100C2000771F771F7191E8F7319704C0707471E0F6
:100C300081F3819190E00196E80FF91FE80FF91F09
:100C4000CF018A1B9B0B8EC0AED03197AD85BE8580
:100C5000F7DF8C01909581959F4FABDFDF01F801A5
:100C6000EA0FFB1F8D018CD0F801089570817ED0B2
:100C7000EE27FF277C5188F07A3078F4FE3008F0B8
:100C8000FDE06AE0BF2FE69FF001B69FF00DE70F91
:100C9000F21D6CD025DD6AD0EDCF91D07F2F66D0CC
:100CA000770F08958D019F01FC01992322F472E1D1
:100CB0002FDFD0F43ED5AFEF80EF98ED19DFA0F431
:100CC00006C08D01B191A0819F01FD01A0E088E1E6
:100CD0009CEF0EDF48F48CE99FEF0ADF28F486EFE3
:100CE00007DF10F47E2F12DFF901D8010895F79B7A
:100CF00005C08B889C8869A47AA40895FF91EF9120
:100D00000895F4990895F3DF57D0F69B03C0CF01FF
:100D1000C9DF0DC071917130B1F076FF02C00FDFF5
:100D200001C0F9DEB8F304C0E2DF76E7F1DE58F087
:100D3000E5E0C6CCDCDFF09A70E0EDDEC8F7762D9A
:100D40007A957770C9F712D00DD089A79AA7EB8B47
:100D5000FC8BED8BFE8B089529D086E7819381E291
:100D600097E1F3CF0D01DF01F00108950C01C301FC
:100D700030010D01D40140010F01F501500108952A
:100D80001FB601900D920197E1F71FBE08951FB69F
:100D900000800C92319711970197D1F71FBE0895EB
:100DA000E985FA850895EF85F8890895E989FA8932
:100DB0000895EDA1FEA10895EFA1F8A50895EFA370
:100DC000F8A708954F2C643F592B174B364E1067E8
:100DD000692A2D605C3B184D0D11444C315001E3E4
:100DE0000206006A1006D505CE0F060076100062D6
:100DF0001000B21004E306D605D60F040024100537
:100E0000D0100100FA1004DA06D900CE1505F60E4E
:100E100003721003C60706D8053C1103561003AC35
:100E200007038A0700661000480C00580D05F00EF5
:100E300000D607007E0F00BE0F00C60F3197EBA74C
:100E4000FCA72A8E2B8E9E8DF59B04C09F779E8FCC
:100E500047DC7AC090689E8F3CDC08DF20F0B5014B
:100E60006051774208F084D02FDC9E8D9F779E8F53
:100E70002FA228A6763761F0872F2BDC865E98F3A9
:100E8000E4ECFDE0E80FF21D8491E80FF21D03C0D1
:100E90000895EF8DF8A17591EF8FF8A382E99EE098
:100EA000969587958F939F93872F770F58F0E8ED4E
:100EB000FEE0E70FF21D65917491769567956F934B
:100EC0007F9302CC01DC753D19F46E8D60686E8FE6
:100ED000781709F04DC0FDCB060F2E0F420F000F03
:100EE000600F080F6A0FF79908959F918F91708195
:100EF000763709F03DD070817637C1F0EADBFCCF60
:100F0000763709F032D077179F918F9109F4EBDF94
:100F100029DFEF8DF8A18591949124DF969587952F
:100F20008F939F938FA198A5792F782B089578D3CD
:100F3000F8F4F79B9DC1EDA3FEA3F79899D1F79A1A
:100F400008959F918F919EB39F9306D1BF918EE09C
:100F500095E17EB3F799E2CF7B2776FD09D0C7CF25
:100F6000EDA3FEA35DD320F4BBCBF6D0F699089594
:100F70007A8D0B8C702911F4EA8FFB8F0895B7DE00
:100F80008D859E858D5291408DDE75E1C4DD8F8506
:100F90009889AD85BE858A1B9B0B84DE75E1BBDD20
:100FA0008DB79EB7AD89BE89845292098A1B9B0B6F
:100FB00012F480E090E076DEBADE95DFB5CEF79BE6
:100FC0000895F19A0895F79B0895F198089511F402
:100FD000F79991CF49CF8F939F93C7DF9F918F91BF
:100FE00082DFEADEEF93FF9392D29F918F91F49983
:100FF00008958F939F9331976081762F70687083E7
:101000003296607821F4319684E090E0CDDD31961F
:10101000BF91AF91A193B193AF81B8851196A19380
:10102000B0830895C6DE8AD1F49908959BDE329785
:101030006191607871F01196A193B1938191919132
:101040000F01FC015ED33096F00159F78191908138
:101050000CC0E1E035CB11F48BA19CA189A39AA32C
:101060000895E9E02DCB8C8D9D8D8F839887F39A21
:101070000895FBDFE9CDEF81F8851F900F90319641
:10108000EF93FF930F921F92F0DF90E086E0AD891F
:10109000BE89A80FB91FEAA5F72F7F2FFF27E65EAD
:1010A000EA0FFB1F0DB6E0190EB6F00908F3E4E0F5
:1010B00007CBFF91EF919F918F919F3319F0EF93A1
:1010C000FF93D3CF8F939F93EF93FF93E7E0F8CAFB
:1010D0007081763709F428CE785D721D41F03CD0DE
:1010E00010DEF2DA785D721D11F0FDDE1DCE08F023
:1010F00021DEEFDA763781F7089568856623E2F01E
:10110000FF91EF91F59A6E8D6F7B7EB3707490E0D6
:1011100082E009F484E0762B7E8F6ED2D8F466E705
:101120006083823019F071E07C93729370EB72935C
:101130007AA573957F8BA1CBE8E0C2CA8F939F936A
:101140000BD0BF91AF91CFDE7FA1F4990895AB5F33
:10115000BE437C930895C6DAB7DA90E080E08F93BF
:101160009F9360D228F199E080E0A0E0B0E07C5D40
:10117000A9F0119794E0739589F07395A9F07732EF
:1011800041F4F69831961BDEABDA7A9579F0753733
:10119000D9F7EEDEEBDD90E080E020C0AF93BF93A7
:1011A0008F939F9396DADDCF96DA0AC099DA08C05A
:1011B000763210F05DD004C059DD08F4D9DEF69A1D
:1011C00083DAD4DD90E080E07C5D40F07A3030F46A
:1011D000872FE6E6F2E1E70FF21D9491BF91AF9100
:1011E000B91770F1BB23C2DDD1F0C0DDF79B18C089
:1011F000E0E3F6E1EA0FF21DEA0FF21DA591B491CA
:101200001F900F90EAE3F2E1F695E795EF93FF93D5
:10121000F001B695A795AF93BF93AFA1B8A5089578
:101220007A2F7A30779576950EB27025707419F012
:101230009DDD9EDE9BDDFF91EF91C1DDF69ACECF65
:10124000AF93BF93782FF69907C07D5F872F7A30D1
:1012500018F48CDD8DDE8ADDAFDDEF93FF938F9385
:101260009F9384DD9FCF0606080703020A05050544
:10127000EF93FF93F69A34DA7D3009F459C07A3D42
:1012800009F454C0CFD110F42BDAFCCF7A3D39F0F9
:101290007D3009F04FC024DA7A3D09F044C0A7E060
:1012A000B4E1FF91EF91EF93FF9380811BDA1196E8
:1012B00059DD749157DD7817C1F37F73781719F4EE
:1012C00080818A3D49F04EDD75914CDD772359F1DF
:1012D000770FC8F71196E5CFAF93BF93FCD9BF91B5
:1012E000AF910F900F90EF93FF936EB33BDD75912D
:1012F00039DD67276074B9F4F69A7F737D3009F49D
:10130000F698FF91EF91F79B0895E2E0F4E1F695EE
:10131000E795EF93FF93FD01A591B491B695A7953D
:10132000AF93BF9349CDFF91EF9122CED4D902C0A4
:10133000F698D6D9FF91EF91F79B0895819170812E
:10134000EF93FF937A3DA1F48F939F938BA59CA578
:101350008F939F9300DFFF91EF91FCA7EBA79F91E5
:101360008F91F49B0CC0E3E0ACD9FF91EF9108950D
:101370008F7D7D3021F0806455D108F08062ED854D
:10138000FE8570817F7709F41EC17817B9F4770F55
:10139000770F22F198F5BF91AF91AF93BF93EF9381
:1013A000FF9331967D9160817617D9F37068761737
:1013B00019F47C9137D148F4FF91EF918F939F936B
:1013C00021DCFD019F918F91DCCFBF91AF91BF9147
:1013D000AF913196A191B081C5DC13C0C0F30F90DD
:1013E0000F90DF01E9DCFF2369F411967C917E17F1
:1013F00048F0EE0FFF1FEA0FFB1FEBCFBF91AF913D
:101400003196DDCCE3E05CC9352A2AF06214282D40
:1014100037CDEC14283429AAC4143733E9361439EB
:10142000318D04153A38F7000D383937CDCA1426F6
:1014300027F82C1700009F01E9A1FAA1ADE4B0E064
:10144000309631F012D1E81BF90B20F4319602C02E
:10145000E3EBFFEFE9A3FAA3D90107D1FC01319631
:1014600008956EE0E030F607A8F060E1E030F6079E
:1014700088F4E050FE406E2FF695E795E695E695E8
:1014800067706295660F660FFF1FE62BE05CF84EF3
:10149000E49119C0EB5FFE4361E0ED30F60790F098
:1014A00061E0E731F60770F46E2F6D50669518F025
:1014B00009D0E550089531976081F1816550F14C74
:1014C000EF2F01C0E081F0E0089550DC87E090E06C
:1014D00093D0A8F4AD014ADCCF01E4DB47DC71E036
:1014E0007C93FA010895FF91EF91089582E090E0D6
:1014F0007E2F82D020F461E0608372930895E6E04D
:10150000F1E008957081713009F031960895F499F1
:1015100008958F939F934DDC11DF7D81733019F314
:10152000F49B28C02D82F498F69B2DC042DC82E00B
:1015300090E001963196708175D0D8F37A3D09F428
:1015400042C05AD080F6AF93BF9333DC119770E45A
:10155000039729F015DC708170687C9370E6FF9129
:10156000EF9122D0FFDB1197FF91EF91FBDBB0836E
:10157000A2930895F699F8CFFF91EF9106D01CDC65
:10158000319740DB66CBFF91EF9181E090E00196CF
:1015900071917130E1F7AF012FD0DF01FA0190F4C2
:1015A000F6DBE0DB319670EADF0103DC6081762751
:1015B000FD0133D031977083F9DBEF87F88B3197DA
:1015C00060E860830895FF91EF91E2E079C8992384
:1015D00009F018CFAC010296880F991F0DD050F476
:1015E0003197DF01119702972082D1DBCA018083F6
:1015F00070E8DACFFA0108954ADD68F48C01D3DB94
:101600009F01D4DB3197D0DA32962F87388BC8010F
:10161000A9DB319608940895C9DBAF85B88918CB4A
:10162000763201C07C3110F07034089588940895AA
:101630004A1650165A16B616E816EE168E16F416F8
:10164000001702170C1712171017EA1BFB0B02C02A
:10165000EA0FFB1FDBF4E6E033C865D09C0105D040
:10166000C901C9F7769590F464C0EA9F8001FB9F99
:10167000C001EB9F100D811D921DFA9F100D811D61
:10168000921DF801110F0008092A082A0895B7FDD4
:10169000E2CF77274BD07A239C01CD01DF01E1E037
:1016A000F0E0019732F0AC01E0DFCA01D1F3C901EB
:1016B000D2CFC901D7CF7B2F7A2B69F234D00C015E
:1016C000EE0FFF1F80E090E060E1881F991F8A1BEA
:1016D0009B0B10F48A0F9B1FEE1FFF1F6A95A9F743
:1016E000E095F095C001BECFEA23FB230895EA2BD5
:1016F000FB2B0895EA17FB0739F4EFEFFE2F08954F
:1017000031DBEA17FB07CCF3E0E0F8CF05D0F4CFEC
:1017100029DB02D090F3F8CF7D910190701511F480
:101720007130D1F70895772700D01CDBFF2322F416
:101730007395F095E195FF4F0895000000000000BB
:101740000000F000F00F00000FAA00AA0000000047
:101750000000000000000000000000000000000089
:101760000000000000000000000000000000000079
:101770000000000000000000000000000000000069
:101780000014F000F00F00000F5500551E08003E39
:101790000410000000000000000000001C0C3E3E91
:1017A0000C7F3E7F3E3E3E7E1E7C7F7F1E413E0282
:1017B000424041613E7E3E7E3E7F41414121417F2C
:1017C0000014F000F00F00000FAA00AA213E004113
:1017D000080800082A0200100408000022144141F1
:1017E0001440400141414141214240402141080211
:1017F000444063514141414140084141411222026C
:101800000000F000F00F00000F5500557848080662
:10181000080800081C043E080800000041040106F6
:10182000247E7E023E41417E40417C7C407F080216
:1018300078405549414141413E084141410C1C0419
:101840000000F0FF0000F00FF0AAAA00203E000800
:1018500008083E3E080800041000000041043E0154
:1018600044014104413F7F414041404047410842DB
:1018700044404945417E497E01084122490C0808FF
:101880000000F0FF0000F00FF055550020090000A7
:10189000080800081C103E080808080C22044041F3
:1018A0007F414108410141412142404021410822FC
:1018B00042404143414045444108411455120810FB
:1018C0000000F0FF0000F00FF0AAAA007F3E080819
:1018D000041000082A2000100408080C1C1E7F3E7B
:1018E000043E3E083E3E417E1E7C7F401E413E1C23
:1018F000417F41413E403E423E083E082221087F52
:101900000000F0FF0000F00FF05555000008000047
:1019100000000000000000000010100000000000A7
:1019200000000000000000000000000000000000B7
:1019300000000000000000000000000000000000A7
:04194000F894FFCF49
:101F000067B760FDFDCF0895FBDF77BFE8950895C3
:101F1000F8948F9373E0F8DF80E20D901D9071E0EC
:101F2000F3DF32968A95C9F7E054F04075E0ECDFB4
:101F300071E1EADF77B776FDFBCFE2DFE05CFF4FD0
:101F40008F917894089517D38D859E858E1B9F0B56
:101F5000808391838F8598898E1B9F0B82839383C7
:101F6000DF01E0E0FBE1D4DF80549040E2F70AC3F8
:101F7000E0E0FBE1659175916450720900F1A3E026
:101F8000663B7A07E0F4859195910497C0F0681755
:101F90007907A8F4ADE2B1E06A0F7B1F6D877E87F9
:101FA00063E0873B960758F4BC016A0F7B1F6F877D
:101FB000788B75917D930197E1F708940895889443
:021FC000089582
:00000001FF
